{"abi":[{"type":"constructor","inputs":[{"name":"_worldIdRouter","type":"address","internalType":"address"},{"name":"_appId","type":"string","internalType":"string"},{"name":"_actionId","type":"string","internalType":"string"}],"stateMutability":"nonpayable"},{"type":"function","name":"allVotingTopics","inputs":[{"name":"","type":"uint256","internalType":"uint256"}],"outputs":[{"name":"","type":"address","internalType":"address"}],"stateMutability":"view"},{"type":"function","name":"createNewVoting","inputs":[{"name":"_votingTopic","type":"string","internalType":"string"},{"name":"_startTime","type":"uint256","internalType":"uint256"},{"name":"_endTime","type":"uint256","internalType":"uint256"},{"name":"_optionsArray","type":"string[]","internalType":"string[]"}],"outputs":[],"stateMutability":"nonpayable"},{"type":"function","name":"getAllVotingTopics","inputs":[],"outputs":[{"name":"","type":"address[]","internalType":"address[]"}],"stateMutability":"view"},{"type":"function","name":"isAdmin","inputs":[{"name":"","type":"address","internalType":"address"}],"outputs":[{"name":"","type":"bool","internalType":"bool"}],"stateMutability":"view"},{"type":"function","name":"isUserWorldIdVerified","inputs":[{"name":"_user","type":"address","internalType":"address"}],"outputs":[{"name":"","type":"bool","internalType":"bool"}],"stateMutability":"view"},{"type":"function","name":"isWorldIdVerified","inputs":[{"name":"","type":"address","internalType":"address"}],"outputs":[{"name":"","type":"bool","internalType":"bool"}],"stateMutability":"view"},{"type":"function","name":"owner","inputs":[],"outputs":[{"name":"","type":"address","internalType":"address"}],"stateMutability":"view"},{"type":"function","name":"renounceOwnership","inputs":[],"outputs":[],"stateMutability":"nonpayable"},{"type":"function","name":"setAdmin","inputs":[{"name":"_admin","type":"address","internalType":"address"},{"name":"_isAdmin","type":"bool","internalType":"bool"}],"outputs":[],"stateMutability":"nonpayable"},{"type":"function","name":"transferOwnership","inputs":[{"name":"newOwner","type":"address","internalType":"address"}],"outputs":[],"stateMutability":"nonpayable"},{"type":"function","name":"verifyUser","inputs":[{"name":"_signal","type":"address","internalType":"address"},{"name":"_root","type":"uint256","internalType":"uint256"},{"name":"_nullifierHash","type":"uint256","internalType":"uint256"},{"name":"_proof","type":"uint256[8]","internalType":"uint256[8]"}],"outputs":[],"stateMutability":"nonpayable"},{"type":"function","name":"worldIdRouter","inputs":[],"outputs":[{"name":"","type":"address","internalType":"contract IWorldID"}],"stateMutability":"view"},{"type":"event","name":"NewVotingTopic","inputs":[{"name":"votingAddress","type":"address","indexed":true,"internalType":"address"},{"name":"votingTopic","type":"string","indexed":false,"internalType":"string"},{"name":"startTime","type":"uint256","indexed":false,"internalType":"uint256"},{"name":"endTime","type":"uint256","indexed":false,"internalType":"uint256"}],"anonymous":false},{"type":"event","name":"OwnershipTransferred","inputs":[{"name":"previousOwner","type":"address","indexed":true,"internalType":"address"},{"name":"newOwner","type":"address","indexed":true,"internalType":"address"}],"anonymous":false},{"type":"event","name":"SetAdmin","inputs":[{"name":"admin","type":"address","indexed":false,"internalType":"address"},{"name":"isAdmin","type":"bool","indexed":false,"internalType":"bool"}],"anonymous":false}],"bytecode":{"object":"0x60a06040523480156200001157600080fd5b5060405162002a5d38038062002a5d833981016040819052620000349162000202565b6200003f33620000ae565b600180546001600160a01b0319166001600160a01b038516179055604051620000a1906200008d90620000779085906020016200028c565b60408051601f19818403018152919052620000fe565b8260405160200162000077929190620002aa565b60805250620002d2915050565b600080546001600160a01b038381166001600160a01b0319831681178455604051919092169283917f8be0079c531659141344cd1fd0a4f28419497f9722a3daafe3b4186f6b6457e09190a35050565b60006008826040516020016200011591906200028c565b60408051601f198184030181529190528051602090910120901c92915050565b634e487b7160e01b600052604160045260246000fd5b60005b83811015620001685781810151838201526020016200014e565b50506000910152565b600082601f8301126200018357600080fd5b81516001600160401b0380821115620001a057620001a062000135565b604051601f8301601f19908116603f01168101908282118183101715620001cb57620001cb62000135565b81604052838152866020858801011115620001e557600080fd5b620001f88460208301602089016200014b565b9695505050505050565b6000806000606084860312156200021857600080fd5b83516001600160a01b03811681146200023057600080fd5b60208501519093506001600160401b03808211156200024e57600080fd5b6200025c8783880162000171565b935060408601519150808211156200027357600080fd5b50620002828682870162000171565b9150509250925092565b60008251620002a08184602087016200014b565b9190910192915050565b82815260008251620002c48160208501602087016200014b565b919091016020019392505050565b60805161276f620002ee60003960006104eb015261276f6000f3fe60806040523480156200001157600080fd5b5060043610620000c35760003560e01c8063846e50c4116200007a578063846e50c414620001ab5780638da5cb5b14620001c25780639968009a14620001d45780639f50b66d14620001ed578063b4ca1b1b1462000201578063f2fde38b146200021857600080fd5b80632479c84b14620000c857806324d7806c14620000fc5780634b0bddd214620001335780635e3d4e8e146200014c578063715018a6146200017b578063716ff61d1462000185575b600080fd5b620000df620000d93660046200074d565b6200022f565b6040516001600160a01b0390911681526020015b60405180910390f35b620001226200010d36600462000784565b60026020526000908152604090205460ff1681565b6040519015158152602001620000f3565b6200014a62000144366004620007a9565b6200025a565b005b620001226200015d36600462000784565b6001600160a01b031660009081526003602052604090205460ff1690565b6200014a620002c7565b620001226200019636600462000784565b60036020526000908152604090205460ff1681565b6200014a620001bc366004620008aa565b620002df565b6000546001600160a01b0316620000df565b620001de62000432565b604051620000f39190620009b4565b600154620000df906001600160a01b031681565b6200014a6200021236600462000a03565b62000496565b6200014a6200022936600462000784565b620005dd565b600481815481106200024057600080fd5b6000918252602090912001546001600160a01b0316905081565b620002646200065c565b6001600160a01b038216600081815260026020908152604091829020805460ff19168515159081179091558251938452908301527f55a5194bc0174fcaf12b2978bef43911466bf63b34db8d1dd1a0d5dcd5c41bea910160405180910390a15050565b620002d16200065c565b620002dd6000620006b8565b565b3360009081526002602052604090205460ff16806200030857506000546001600160a01b031633145b6200035a5760405162461bcd60e51b815260206004820152601b60248201527f566f74696e67476f7665726e616e63653a204e6f742041646d696e000000000060448201526064015b60405180910390fd5b6000848484846040516200036e906200073f565b6200037d949392919062000aa9565b604051809103906000f0801580156200039a573d6000803e3d6000fd5b50600480546001810182556000919091527f8a35acfbc15ff81a39ae7d344fd709f28e8600b4aa8c65c6b64bfe7fe36bd19b0180546001600160a01b0319166001600160a01b038316908117909155604051919250907f27a79e3c70f83cf562aa522ea5b90297a675eea406dc3ea827788d190a39345c90620004239088908890889062000b2f565b60405180910390a25050505050565b606060048054806020026020016040519081016040528092919081815260200182805480156200048c57602002820191906000526020600020905b81546001600160a01b031681526001909101906020018083116200046d575b5050505050905090565b600180546040516bffffffffffffffffffffffff19606088901b1660208201526001600160a01b0390911691633bc778e391869190620004e89060340160405160208183030381529060405262000708565b867f0000000000000000000000000000000000000000000000000000000000000000876040518763ffffffff1660e01b81526004016200052e9695949392919062000b56565b60006040518083038186803b1580156200054757600080fd5b505afa92505050801562000559575060015b620005b4576200056862000b8e565b806308c379a003620005a857506200057f62000bab565b806200058c5750620005aa565b8060405162461bcd60e51b815260040162000351919062000c3b565b505b3d6000803e3d6000fd5b6001600160a01b0384166000908152600360205260409020805460ff1916600117905550505050565b620005e76200065c565b6001600160a01b0381166200064e5760405162461bcd60e51b815260206004820152602660248201527f4f776e61626c653a206e6577206f776e657220697320746865207a65726f206160448201526564647265737360d01b606482015260840162000351565b6200065981620006b8565b50565b6000546001600160a01b03163314620002dd5760405162461bcd60e51b815260206004820181905260248201527f4f776e61626c653a2063616c6c6572206973206e6f7420746865206f776e6572604482015260640162000351565b600080546001600160a01b038381166001600160a01b0319831681178455604051919092169283917f8be0079c531659141344cd1fd0a4f28419497f9722a3daafe3b4186f6b6457e09190a35050565b60006008826040516020016200071f919062000c50565b60408051601f198184030181529190528051602090910120901c92915050565b611acb8062000c6f83390190565b6000602082840312156200076057600080fd5b5035919050565b80356001600160a01b03811681146200077f57600080fd5b919050565b6000602082840312156200079757600080fd5b620007a28262000767565b9392505050565b60008060408385031215620007bd57600080fd5b620007c88362000767565b915060208301358015158114620007de57600080fd5b809150509250929050565b634e487b7160e01b600052604160045260246000fd5b601f8201601f1916810167ffffffffffffffff81118282101715620008285762000828620007e9565b6040525050565b600082601f8301126200084157600080fd5b813567ffffffffffffffff8111156200085e576200085e620007e9565b60405162000877601f8301601f191660200182620007ff565b8181528460208386010111156200088d57600080fd5b816020850160208301376000918101602001919091529392505050565b60008060008060808587031215620008c157600080fd5b843567ffffffffffffffff80821115620008da57600080fd5b620008e8888389016200082f565b955060209150818701359450604087013593506060870135818111156200090e57600080fd5b8701601f810189136200092057600080fd5b803582811115620009355762000935620007e9565b8060051b6040516200094a86830182620007ff565b9182528281018501918581018c8411156200096457600080fd5b86850192505b83831015620009a357823586811115620009845760008081fd5b620009948e89838901016200082f565b8252509186019186016200096a565b50989b979a50959850505050505050565b6020808252825182820181905260009190848201906040850190845b81811015620009f75783516001600160a01b031683529284019291840191600101620009d0565b50909695505050505050565b60008060008061016080868803121562000a1c57600080fd5b62000a278662000767565b9450602086013593506040860135925086818701111562000a4757600080fd5b509295919450926060019150565b60005b8381101562000a7257818101518382015260200162000a58565b50506000910152565b6000815180845262000a9581602086016020860162000a55565b601f01601f19169290920160200192915050565b60808152600062000abe608083018762000a7b565b6020868185015285604085015283820360608501528185518084528284019150828160051b85010183880160005b8381101562000b1e57601f1987840301855262000b0b83835162000a7b565b9486019492509085019060010162000aec565b50909b9a5050505050505050505050565b60608152600062000b44606083018662000a7b565b60208301949094525060400152919050565b60006101a0820190508782528660208301528560408301528460608301528360808301526101008360a0840137979650505050505050565b600060033d111562000ba85760046000803e5060005160e01c5b90565b600060443d101562000bba5790565b6040516003193d81016004833e81513d67ffffffffffffffff816024840111818411171562000beb57505050505090565b828501915081518181111562000c045750505050505090565b843d870101602082850101111562000c1f5750505050505090565b62000c3060208286010187620007ff565b509095945050505050565b602081526000620007a2602083018462000a7b565b6000825162000c6481846020870162000a55565b919091019291505056fe60806040523480156200001157600080fd5b5060405162001acb38038062001acb8339810160408190526200003491620003b8565b6200003f3362000292565b601481511115620000965760405162461bcd60e51b815260206004820152601d60248201527f566f74696e67546f7069633a20546f6f206d616e79206f7074696f6e73000000604482015260640160405180910390fd5b600180546001600160a01b031916331790556002620000b6858262000551565b506003839055600482905560005b81518110156200018a5760066040518060600160405280848481518110620000f057620000f06200061d565b60209081029190910181015182526000828201819052604090920182905283546001810185559382529020815191926003020190819062000132908262000551565b506020820151600180830191909155604090920151600290910155600580546000906200016490849060ff1662000649565b92506101000a81548160ff021916908360ff1602179055508080600101915050620000c4565b5060005b60065481101562000287576000620001a88260016200066b565b90505b6006548110156200027d5760078054600190810180835560008381529291620001d49162000681565b81548110620001e757620001e76200061d565b90600052602060002090600502019050600683815481106200020d576200020d6200061d565b6000918252602090912082916200022b916003909102018262000697565b506001810183905560068054839081106200024a576200024a6200061d565b90600052602060002090600302016000018160020190816200026d919062000697565b50600301819055600101620001ab565b506001016200018e565b505050505062000780565b600080546001600160a01b038381166001600160a01b0319831681178455604051919092169283917f8be0079c531659141344cd1fd0a4f28419497f9722a3daafe3b4186f6b6457e09190a35050565b634e487b7160e01b600052604160045260246000fd5b604051601f8201601f191681016001600160401b0381118282101715620003235762000323620002e2565b604052919050565b600082601f8301126200033d57600080fd5b81516001600160401b03811115620003595762000359620002e2565b60206200036f601f8301601f19168201620002f8565b82815285828487010111156200038457600080fd5b60005b83811015620003a457858101830151828201840152820162000387565b506000928101909101919091529392505050565b60008060008060808587031215620003cf57600080fd5b84516001600160401b0380821115620003e757600080fd5b620003f5888389016200032b565b955060209150818701519450604087015193506060870151818111156200041b57600080fd5b8701601f810189136200042d57600080fd5b805182811115620004425762000442620002e2565b8060051b62000453858201620002f8565b918252828101850191858101908c8411156200046e57600080fd5b86850192505b83831015620004af578251868111156200048e5760008081fd5b6200049e8e89838901016200032b565b835250918601919086019062000474565b999c989b5096995050505050505050565b600181811c90821680620004d557607f821691505b602082108103620004f657634e487b7160e01b600052602260045260246000fd5b50919050565b601f8211156200054c576000816000526020600020601f850160051c81016020861015620005275750805b601f850160051c820191505b81811015620005485782815560010162000533565b5050505b505050565b81516001600160401b038111156200056d576200056d620002e2565b62000585816200057e8454620004c0565b84620004fc565b602080601f831160018114620005bd5760008415620005a45750858301515b600019600386901b1c1916600185901b17855562000548565b600085815260208120601f198616915b82811015620005ee57888601518255948401946001909101908401620005cd565b50858210156200060d5787850151600019600388901b60f8161c191681555b5050505050600190811b01905550565b634e487b7160e01b600052603260045260246000fd5b634e487b7160e01b600052601160045260246000fd5b60ff818116838216019081111562000665576200066562000633565b92915050565b8082018082111562000665576200066562000633565b8181038181111562000665576200066562000633565b818103620006a3575050565b620006af8254620004c0565b6001600160401b03811115620006c957620006c9620002e2565b620006da816200057e8454620004c0565b6000601f821160018114620007115760008315620006f85750848201545b600019600385901b1c1916600184901b17845562000779565b600085815260209020601f19841690600086815260209020845b838110156200074d57828601548255600195860195909101906020016200072b565b50858310156200076c5781850154600019600388901b60f8161c191681555b50505060018360011b0184555b5050505050565b61133b80620007906000396000f3fe608060405234801561001057600080fd5b50600436106101005760003560e01c80638da5cb5b11610097578063b354388911610066578063b354388914610216578063c32878fa14610235578063f2fde38b14610248578063fd3cdca21461025b57600080fd5b80638da5cb5b146101d3578063943e8216146101e457806398d55578146101f75780639d5a05291461020c57600080fd5b8063715018a6116100d3578063715018a61461017f57806375b63bbe1461018957806378e97925146101b457806383d948b7146101bd57600080fd5b80632b028f39146101055780633197cbb6146101315780633df0b2b114610148578063409e22051461015d575b600080fd5b610118610113366004610e6a565b61026e565b6040516101289493929190610ec9565b60405180910390f35b61013a60045481565b604051908152602001610128565b6101506103be565b6040516101289190610f06565b61017061016b366004610e6a565b6104c3565b60405161012893929190610f89565b610187610585565b005b60015461019c906001600160a01b031681565b6040516001600160a01b039091168152602001610128565b61013a60035481565b60035442115b6040519015158152602001610128565b6000546001600160a01b031661019c565b6101876101f2366004610fc2565b610599565b6101ff61089c565b6040516101289190610fee565b60045442116101c3565b6005546102239060ff1681565b60405160ff9091168152602001610128565b6101c361024336600461101f565b61092a565b610187610256366004611042565b610995565b6101876102693660046110a9565b610a0e565b6007818154811061027e57600080fd5b90600052602060002090600502016000915090508060000180546102a190611115565b80601f01602080910402602001604051908101604052809291908181526020018280546102cd90611115565b801561031a5780601f106102ef5761010080835404028352916020019161031a565b820191906000526020600020905b8154815290600101906020018083116102fd57829003601f168201915b50505050509080600101549080600201805461033590611115565b80601f016020809104026020016040519081016040528092919081815260200182805461036190611115565b80156103ae5780601f10610383576101008083540402835291602001916103ae565b820191906000526020600020905b81548152906001019060200180831161039157829003601f168201915b5050505050908060030154905084565b60606006805480602002602001604051908101604052809291908181526020016000905b828210156104ba578382906000526020600020906003020160405180606001604052908160008201805461041590611115565b80601f016020809104026020016040519081016040528092919081815260200182805461044190611115565b801561048e5780601f106104635761010080835404028352916020019161048e565b820191906000526020600020905b81548152906001019060200180831161047157829003601f168201915b5050505050815260200160018201548152602001600282015481525050815260200190600101906103e2565b50505050905090565b600681815481106104d357600080fd5b90600052602060002090600302016000915090508060000180546104f690611115565b80601f016020809104026020016040519081016040528092919081815260200182805461052290611115565b801561056f5780601f106105445761010080835404028352916020019161056f565b820191906000526020600020905b81548152906001019060200180831161055257829003601f168201915b5050505050908060010154908060020154905083565b61058d610dc0565b6105976000610e1a565b565b600154604051632f1ea74760e11b81523360048201526001600160a01b0390911690635e3d4e8e90602401602060405180830381865afa1580156105e1573d6000803e3d6000fd5b505050506040513d601f19601f82011682018060405250810190610605919061114f565b61062a5760405162461bcd60e51b815260040161062190611171565b60405180910390fd5b600354421015801561063e57506004544211155b61065a5760405162461bcd60e51b8152600401610621906111b8565b600754821061067b5760405162461bcd60e51b8152600401610621906111fa565b6007828154811061068e5761068e611242565b600091825260208083203384526004600590930201919091019052604090205460ff16156106ce5760405162461bcd60e51b815260040161062190611258565b60008160018111156106e2576106e26112ad565b036107a0576006600783815481106106fc576106fc611242565b9060005260206000209060050201600101548154811061071e5761071e611242565b60009182526020822060016003909202010180549161073c836112c3565b919050555060066007838154811061075657610756611242565b9060005260206000209060050201600301548154811061077857610778611242565b600091825260208220600260039092020101805491610796836112c3565b9190505550610855565b6006600783815481106107b5576107b5611242565b906000526020600020906005020160030154815481106107d7576107d7611242565b6000918252602082206001600390920201018054916107f5836112c3565b919050555060066007838154811061080f5761080f611242565b9060005260206000209060050201600101548154811061083157610831611242565b60009182526020822060026003909202010180549161084f836112c3565b91905055505b60016007838154811061086a5761086a611242565b60009182526020808320338452600592909202909101600401905260409020805460ff19169115159190911790555050565b600280546108a990611115565b80601f01602080910402602001604051908101604052809291908181526020018280546108d590611115565b80156109225780601f106108f757610100808354040283529160200191610922565b820191906000526020600020905b81548152906001019060200180831161090557829003601f168201915b505050505081565b600754600090831061094e5760405162461bcd60e51b8152600401610621906111fa565b6007838154811061096157610961611242565b600091825260208083206001600160a01b03861684526004600590930201919091019052604090205460ff16905092915050565b61099d610dc0565b6001600160a01b038116610a025760405162461bcd60e51b815260206004820152602660248201527f4f776e61626c653a206e6577206f776e657220697320746865207a65726f206160448201526564647265737360d01b6064820152608401610621565b610a0b81610e1a565b50565b600154604051632f1ea74760e11b81523360048201526001600160a01b0390911690635e3d4e8e90602401602060405180830381865afa158015610a56573d6000803e3d6000fd5b505050506040513d601f19601f82011682018060405250810190610a7a919061114f565b610a965760405162461bcd60e51b815260040161062190611171565b6003544210158015610aaa57506004544211155b610ac65760405162461bcd60e51b8152600401610621906111b8565b828114610b215760405162461bcd60e51b8152602060048201526024808201527f566f74696e67546f7069633a204d69736d61746368656420696e7075742061726044820152637261797360e01b6064820152608401610621565b60005b83811015610db9576000858583818110610b4057610b40611242565b9050602002013590506007805490508110610b6d5760405162461bcd60e51b8152600401610621906111fa565b60078181548110610b8057610b80611242565b600091825260208083203384526004600590930201919091019052604090205460ff1615610bc05760405162461bcd60e51b815260040161062190611258565b6000848484818110610bd457610bd4611242565b9050602002016020810190610be991906112ea565b6001811115610bfa57610bfa6112ad565b03610cb857600660078281548110610c1457610c14611242565b90600052602060002090600502016001015481548110610c3657610c36611242565b600091825260208220600160039092020101805491610c54836112c3565b9190505550600660078281548110610c6e57610c6e611242565b90600052602060002090600502016003015481548110610c9057610c90611242565b600091825260208220600260039092020101805491610cae836112c3565b9190505550610d6d565b600660078281548110610ccd57610ccd611242565b90600052602060002090600502016003015481548110610cef57610cef611242565b600091825260208220600160039092020101805491610d0d836112c3565b9190505550600660078281548110610d2757610d27611242565b90600052602060002090600502016001015481548110610d4957610d49611242565b600091825260208220600260039092020101805491610d67836112c3565b91905055505b600160078281548110610d8257610d82611242565b60009182526020808320338452600592909202909101600401905260409020805460ff191691151591909117905550600101610b24565b5050505050565b6000546001600160a01b031633146105975760405162461bcd60e51b815260206004820181905260248201527f4f776e61626c653a2063616c6c6572206973206e6f7420746865206f776e65726044820152606401610621565b600080546001600160a01b038381166001600160a01b0319831681178455604051919092169283917f8be0079c531659141344cd1fd0a4f28419497f9722a3daafe3b4186f6b6457e09190a35050565b600060208284031215610e7c57600080fd5b5035919050565b6000815180845260005b81811015610ea957602081850181015186830182015201610e8d565b506000602082860101526020601f19601f83011685010191505092915050565b608081526000610edc6080830187610e83565b8560208401528281036040840152610ef48186610e83565b91505082606083015295945050505050565b600060208083018184528085518083526040925060408601915060408160051b87010184880160005b83811015610f7b57603f19898403018552815160608151818652610f5582870182610e83565b838b0151878c015292890151958901959095525094870194925090860190600101610f2f565b509098975050505050505050565b606081526000610f9c6060830186610e83565b60208301949094525060400152919050565b803560028110610fbd57600080fd5b919050565b60008060408385031215610fd557600080fd5b82359150610fe560208401610fae565b90509250929050565b6020815260006110016020830184610e83565b9392505050565b80356001600160a01b0381168114610fbd57600080fd5b6000806040838503121561103257600080fd5b82359150610fe560208401611008565b60006020828403121561105457600080fd5b61100182611008565b60008083601f84011261106f57600080fd5b50813567ffffffffffffffff81111561108757600080fd5b6020830191508360208260051b85010111156110a257600080fd5b9250929050565b600080600080604085870312156110bf57600080fd5b843567ffffffffffffffff808211156110d757600080fd5b6110e38883890161105d565b909650945060208701359150808211156110fc57600080fd5b506111098782880161105d565b95989497509550505050565b600181811c9082168061112957607f821691505b60208210810361114957634e487b7160e01b600052602260045260246000fd5b50919050565b60006020828403121561116157600080fd5b8151801515811461100157600080fd5b60208082526027908201527f566f74696e67546f7069633a2055736572206e6f7420576f726c642049442076604082015266195c9a599a595960ca1b606082015260800190565b60208082526022908201527f566f74696e67546f7069633a20566f74696e67206973206e6f74206163746976604082015261329760f11b606082015260800190565b60208082526028908201527f566f74696e67546f7069633a20466163654f666620696e646578206f7574206f60408201526733103137bab7321760c11b606082015260800190565b634e487b7160e01b600052603260045260246000fd5b60208082526035908201527f566f74696e67546f7069633a20557365722068617320616c726561647920766f6040820152743a32b21037b7103a3434b9903330b1b296b7b3331760591b606082015260800190565b634e487b7160e01b600052602160045260246000fd5b6000600182016112e357634e487b7160e01b600052601160045260246000fd5b5060010190565b6000602082840312156112fc57600080fd5b61100182610fae56fea2646970667358221220a35015877425f9816ae796e96fd87bd5e462b4442f7c3207fac00a9eddea2ea064736f6c63430008180033a2646970667358221220aee98ae8138831a84c066740c8ba06d9f935584114c3978dfd3a2996d37f349064736f6c63430008180033","linkReferences":{}},"methodIdentifiers":{"allVotingTopics(uint256)":"2479c84b","createNewVoting(string,uint256,uint256,string[])":"846e50c4","getAllVotingTopics()":"9968009a","isAdmin(address)":"24d7806c","isUserWorldIdVerified(address)":"5e3d4e8e","isWorldIdVerified(address)":"716ff61d","owner()":"8da5cb5b","renounceOwnership()":"715018a6","setAdmin(address,bool)":"4b0bddd2","transferOwnership(address)":"f2fde38b","verifyUser(address,uint256,uint256,uint256[8])":"b4ca1b1b","worldIdRouter()":"9f50b66d"},"id":23}