{"abi":[{"type":"constructor","inputs":[{"name":"_votingTopic","type":"string","internalType":"string"},{"name":"_startTime","type":"uint256","internalType":"uint256"},{"name":"_endTime","type":"uint256","internalType":"uint256"},{"name":"_optionsArray","type":"string[]","internalType":"string[]"}],"stateMutability":"nonpayable"},{"type":"function","name":"batchVote","inputs":[{"name":"_faceOffIndices","type":"uint256[]","internalType":"uint256[]"},{"name":"_options","type":"uint8[]","internalType":"enum VotingTopic.VoteFaceOff[]"}],"outputs":[],"stateMutability":"nonpayable"},{"type":"function","name":"endTime","inputs":[],"outputs":[{"name":"","type":"uint256","internalType":"uint256"}],"stateMutability":"view"},{"type":"function","name":"faceOffPairs","inputs":[{"name":"","type":"uint256","internalType":"uint256"}],"outputs":[{"name":"optionOne","type":"string","internalType":"string"},{"name":"indexOptionOne","type":"uint256","internalType":"uint256"},{"name":"optionTwo","type":"string","internalType":"string"},{"name":"indexOptionTwo","type":"uint256","internalType":"uint256"}],"stateMutability":"view"},{"type":"function","name":"hasUserVotedOnFaceOff","inputs":[{"name":"_faceOffIndex","type":"uint256","internalType":"uint256"},{"name":"_user","type":"address","internalType":"address"}],"outputs":[{"name":"","type":"bool","internalType":"bool"}],"stateMutability":"view"},{"type":"function","name":"options","inputs":[{"name":"","type":"uint256","internalType":"uint256"}],"outputs":[{"name":"optionName","type":"string","internalType":"string"},{"name":"wins","type":"uint256","internalType":"uint256"},{"name":"loses","type":"uint256","internalType":"uint256"}],"stateMutability":"view"},{"type":"function","name":"owner","inputs":[],"outputs":[{"name":"","type":"address","internalType":"address"}],"stateMutability":"view"},{"type":"function","name":"readVotingTopic","inputs":[],"outputs":[{"name":"_votingTopic","type":"string","internalType":"string"},{"name":"_startVoting","type":"uint256","internalType":"uint256"},{"name":"_endVoting","type":"uint256","internalType":"uint256"},{"name":"_options","type":"tuple[]","internalType":"struct VotingTopic.Option[]","components":[{"name":"optionName","type":"string","internalType":"string"},{"name":"wins","type":"uint256","internalType":"uint256"},{"name":"loses","type":"uint256","internalType":"uint256"}]},{"name":"_faceOffPairsLength","type":"uint256","internalType":"uint256"}],"stateMutability":"view"},{"type":"function","name":"renounceOwnership","inputs":[],"outputs":[],"stateMutability":"nonpayable"},{"type":"function","name":"returnAllOptions","inputs":[],"outputs":[{"name":"_allOptions","type":"tuple[]","internalType":"struct VotingTopic.Option[]","components":[{"name":"optionName","type":"string","internalType":"string"},{"name":"wins","type":"uint256","internalType":"uint256"},{"name":"loses","type":"uint256","internalType":"uint256"}]}],"stateMutability":"view"},{"type":"function","name":"startTime","inputs":[],"outputs":[{"name":"","type":"uint256","internalType":"uint256"}],"stateMutability":"view"},{"type":"function","name":"totalOptions","inputs":[],"outputs":[{"name":"","type":"uint8","internalType":"uint8"}],"stateMutability":"view"},{"type":"function","name":"transferOwnership","inputs":[{"name":"newOwner","type":"address","internalType":"address"}],"outputs":[],"stateMutability":"nonpayable"},{"type":"function","name":"vote","inputs":[{"name":"_faceOffIndex","type":"uint256","internalType":"uint256"},{"name":"_option","type":"uint8","internalType":"enum VotingTopic.VoteFaceOff"}],"outputs":[],"stateMutability":"nonpayable"},{"type":"function","name":"votingEnded","inputs":[],"outputs":[{"name":"","type":"bool","internalType":"bool"}],"stateMutability":"view"},{"type":"function","name":"votingGovernance","inputs":[],"outputs":[{"name":"","type":"address","internalType":"contract IVotingGovernance"}],"stateMutability":"view"},{"type":"function","name":"votingStarted","inputs":[],"outputs":[{"name":"","type":"bool","internalType":"bool"}],"stateMutability":"view"},{"type":"function","name":"votingTopic","inputs":[],"outputs":[{"name":"","type":"string","internalType":"string"}],"stateMutability":"view"},{"type":"event","name":"OwnershipTransferred","inputs":[{"name":"previousOwner","type":"address","indexed":true,"internalType":"address"},{"name":"newOwner","type":"address","indexed":true,"internalType":"address"}],"anonymous":false}],"bytecode":{"object":"0x60806040523480156200001157600080fd5b5060405162001cf038038062001cf08339810160408190526200003491620003b8565b6200003f3362000292565b601481511115620000965760405162461bcd60e51b815260206004820152601d60248201527f566f74696e67546f7069633a20546f6f206d616e79206f7074696f6e73000000604482015260640160405180910390fd5b600180546001600160a01b031916331790556002620000b6858262000551565b506003839055600482905560005b81518110156200018a5760066040518060600160405280848481518110620000f057620000f06200061d565b60209081029190910181015182526000828201819052604090920182905283546001810185559382529020815191926003020190819062000132908262000551565b506020820151600180830191909155604090920151600290910155600580546000906200016490849060ff1662000649565b92506101000a81548160ff021916908360ff1602179055508080600101915050620000c4565b5060005b60065481101562000287576000620001a88260016200066b565b90505b6006548110156200027d5760078054600190810180835560008381529291620001d49162000681565b81548110620001e757620001e76200061d565b90600052602060002090600502019050600683815481106200020d576200020d6200061d565b6000918252602090912082916200022b916003909102018262000697565b506001810183905560068054839081106200024a576200024a6200061d565b90600052602060002090600302016000018160020190816200026d919062000697565b50600301819055600101620001ab565b506001016200018e565b505050505062000780565b600080546001600160a01b038381166001600160a01b0319831681178455604051919092169283917f8be0079c531659141344cd1fd0a4f28419497f9722a3daafe3b4186f6b6457e09190a35050565b634e487b7160e01b600052604160045260246000fd5b604051601f8201601f191681016001600160401b0381118282101715620003235762000323620002e2565b604052919050565b600082601f8301126200033d57600080fd5b81516001600160401b03811115620003595762000359620002e2565b60206200036f601f8301601f19168201620002f8565b82815285828487010111156200038457600080fd5b60005b83811015620003a457858101830151828201840152820162000387565b506000928101909101919091529392505050565b60008060008060808587031215620003cf57600080fd5b84516001600160401b0380821115620003e757600080fd5b620003f5888389016200032b565b955060209150818701519450604087015193506060870151818111156200041b57600080fd5b8701601f810189136200042d57600080fd5b805182811115620004425762000442620002e2565b8060051b62000453858201620002f8565b918252828101850191858101908c8411156200046e57600080fd5b86850192505b83831015620004af578251868111156200048e5760008081fd5b6200049e8e89838901016200032b565b835250918601919086019062000474565b999c989b5096995050505050505050565b600181811c90821680620004d557607f821691505b602082108103620004f657634e487b7160e01b600052602260045260246000fd5b50919050565b601f8211156200054c576000816000526020600020601f850160051c81016020861015620005275750805b601f850160051c820191505b81811015620005485782815560010162000533565b5050505b505050565b81516001600160401b038111156200056d576200056d620002e2565b62000585816200057e8454620004c0565b84620004fc565b602080601f831160018114620005bd5760008415620005a45750858301515b600019600386901b1c1916600185901b17855562000548565b600085815260208120601f198616915b82811015620005ee57888601518255948401946001909101908401620005cd565b50858210156200060d5787850151600019600388901b60f8161c191681555b5050505050600190811b01905550565b634e487b7160e01b600052603260045260246000fd5b634e487b7160e01b600052601160045260246000fd5b60ff818116838216019081111562000665576200066562000633565b92915050565b8082018082111562000665576200066562000633565b8181038181111562000665576200066562000633565b818103620006a3575050565b620006af8254620004c0565b6001600160401b03811115620006c957620006c9620002e2565b620006da816200057e8454620004c0565b6000601f821160018114620007115760008315620006f85750848201545b600019600385901b1c1916600184901b17845562000779565b600085815260209020601f19841690600086815260209020845b838110156200074d57828601548255600195860195909101906020016200072b565b50858310156200076c5781850154600019600388901b60f8161c191681555b50505060018360011b0184555b5050505050565b61156080620007906000396000f3fe608060405234801561001057600080fd5b506004361061010b5760003560e01c80638da5cb5b116100a2578063a569f5a711610071578063a569f5a714610221578063b35438891461023a578063c32878fa14610259578063f2fde38b1461026c578063fd3cdca21461027f57600080fd5b80638da5cb5b146101de578063943e8216146101ef57806398d55578146102025780639d5a05291461021757600080fd5b8063715018a6116100de578063715018a61461018a57806375b63bbe1461019457806378e97925146101bf57806383d948b7146101c857600080fd5b80632b028f39146101105780633197cbb61461013c5780633df0b2b114610153578063409e220514610168575b600080fd5b61012361011e366004611043565b610292565b60405161013394939291906110a2565b60405180910390f35b61014560045481565b604051908152602001610133565b61015b6103e2565b6040516101339190611157565b61017b610176366004611043565b6104e7565b60405161013393929190611171565b6101926105a9565b005b6001546101a7906001600160a01b031681565b6040516001600160a01b039091168152602001610133565b61014560035481565b60035442115b6040519015158152602001610133565b6000546001600160a01b03166101a7565b6101926101fd3660046111aa565b6105bd565b61020a6108c0565b60405161013391906111d6565b60045442116101ce565b61022961094e565b6040516101339594939291906111e9565b6005546102479060ff1681565b60405160ff9091168152602001610133565b6101ce610267366004611244565b610b03565b61019261027a366004611267565b610b6e565b61019261028d3660046112ce565b610be7565b600781815481106102a257600080fd5b90600052602060002090600502016000915090508060000180546102c59061133a565b80601f01602080910402602001604051908101604052809291908181526020018280546102f19061133a565b801561033e5780601f106103135761010080835404028352916020019161033e565b820191906000526020600020905b81548152906001019060200180831161032157829003601f168201915b5050505050908060010154908060020180546103599061133a565b80601f01602080910402602001604051908101604052809291908181526020018280546103859061133a565b80156103d25780601f106103a7576101008083540402835291602001916103d2565b820191906000526020600020905b8154815290600101906020018083116103b557829003601f168201915b5050505050908060030154905084565b60606006805480602002602001604051908101604052809291908181526020016000905b828210156104de57838290600052602060002090600302016040518060600160405290816000820180546104399061133a565b80601f01602080910402602001604051908101604052809291908181526020018280546104659061133a565b80156104b25780601f10610487576101008083540402835291602001916104b2565b820191906000526020600020905b81548152906001019060200180831161049557829003601f168201915b505050505081526020016001820154815260200160028201548152505081526020019060010190610406565b50505050905090565b600681815481106104f757600080fd5b906000526020600020906003020160009150905080600001805461051a9061133a565b80601f01602080910402602001604051908101604052809291908181526020018280546105469061133a565b80156105935780601f1061056857610100808354040283529160200191610593565b820191906000526020600020905b81548152906001019060200180831161057657829003601f168201915b5050505050908060010154908060020154905083565b6105b1610f99565b6105bb6000610ff3565b565b600154604051632f1ea74760e11b81523360048201526001600160a01b0390911690635e3d4e8e90602401602060405180830381865afa158015610605573d6000803e3d6000fd5b505050506040513d601f19601f820116820180604052508101906106299190611374565b61064e5760405162461bcd60e51b815260040161064590611396565b60405180910390fd5b600354421015801561066257506004544211155b61067e5760405162461bcd60e51b8152600401610645906113dd565b600754821061069f5760405162461bcd60e51b81526004016106459061141f565b600782815481106106b2576106b2611467565b600091825260208083203384526004600590930201919091019052604090205460ff16156106f25760405162461bcd60e51b81526004016106459061147d565b6000816001811115610706576107066114d2565b036107c45760066007838154811061072057610720611467565b9060005260206000209060050201600101548154811061074257610742611467565b600091825260208220600160039092020101805491610760836114e8565b919050555060066007838154811061077a5761077a611467565b9060005260206000209060050201600301548154811061079c5761079c611467565b6000918252602082206002600390920201018054916107ba836114e8565b9190505550610879565b6006600783815481106107d9576107d9611467565b906000526020600020906005020160030154815481106107fb576107fb611467565b600091825260208220600160039092020101805491610819836114e8565b919050555060066007838154811061083357610833611467565b9060005260206000209060050201600101548154811061085557610855611467565b600091825260208220600260039092020101805491610873836114e8565b91905055505b60016007838154811061088e5761088e611467565b60009182526020808320338452600592909202909101600401905260409020805460ff19169115159190911790555050565b600280546108cd9061133a565b80601f01602080910402602001604051908101604052809291908181526020018280546108f99061133a565b80156109465780601f1061091b57610100808354040283529160200191610946565b820191906000526020600020905b81548152906001019060200180831161092957829003601f168201915b505050505081565b606060008060606000600260035460045460066007805490508480546109739061133a565b80601f016020809104026020016040519081016040528092919081815260200182805461099f9061133a565b80156109ec5780601f106109c1576101008083540402835291602001916109ec565b820191906000526020600020905b8154815290600101906020018083116109cf57829003601f168201915b5050505050945081805480602002602001604051908101604052809291908181526020016000905b82821015610aec5783829060005260206000209060030201604051806060016040529081600082018054610a479061133a565b80601f0160208091040260200160405190810160405280929190818152602001828054610a739061133a565b8015610ac05780601f10610a9557610100808354040283529160200191610ac0565b820191906000526020600020905b815481529060010190602001808311610aa357829003601f168201915b505050505081526020016001820154815260200160028201548152505081526020019060010190610a14565b505050509150945094509450945094509091929394565b6007546000908310610b275760405162461bcd60e51b81526004016106459061141f565b60078381548110610b3a57610b3a611467565b600091825260208083206001600160a01b03861684526004600590930201919091019052604090205460ff16905092915050565b610b76610f99565b6001600160a01b038116610bdb5760405162461bcd60e51b815260206004820152602660248201527f4f776e61626c653a206e6577206f776e657220697320746865207a65726f206160448201526564647265737360d01b6064820152608401610645565b610be481610ff3565b50565b600154604051632f1ea74760e11b81523360048201526001600160a01b0390911690635e3d4e8e90602401602060405180830381865afa158015610c2f573d6000803e3d6000fd5b505050506040513d601f19601f82011682018060405250810190610c539190611374565b610c6f5760405162461bcd60e51b815260040161064590611396565b6003544210158015610c8357506004544211155b610c9f5760405162461bcd60e51b8152600401610645906113dd565b828114610cfa5760405162461bcd60e51b8152602060048201526024808201527f566f74696e67546f7069633a204d69736d61746368656420696e7075742061726044820152637261797360e01b6064820152608401610645565b60005b83811015610f92576000858583818110610d1957610d19611467565b9050602002013590506007805490508110610d465760405162461bcd60e51b81526004016106459061141f565b60078181548110610d5957610d59611467565b600091825260208083203384526004600590930201919091019052604090205460ff1615610d995760405162461bcd60e51b81526004016106459061147d565b6000848484818110610dad57610dad611467565b9050602002016020810190610dc2919061150f565b6001811115610dd357610dd36114d2565b03610e9157600660078281548110610ded57610ded611467565b90600052602060002090600502016001015481548110610e0f57610e0f611467565b600091825260208220600160039092020101805491610e2d836114e8565b9190505550600660078281548110610e4757610e47611467565b90600052602060002090600502016003015481548110610e6957610e69611467565b600091825260208220600260039092020101805491610e87836114e8565b9190505550610f46565b600660078281548110610ea657610ea6611467565b90600052602060002090600502016003015481548110610ec857610ec8611467565b600091825260208220600160039092020101805491610ee6836114e8565b9190505550600660078281548110610f0057610f00611467565b90600052602060002090600502016001015481548110610f2257610f22611467565b600091825260208220600260039092020101805491610f40836114e8565b91905055505b600160078281548110610f5b57610f5b611467565b60009182526020808320338452600592909202909101600401905260409020805460ff191691151591909117905550600101610cfd565b5050505050565b6000546001600160a01b031633146105bb5760405162461bcd60e51b815260206004820181905260248201527f4f776e61626c653a2063616c6c6572206973206e6f7420746865206f776e65726044820152606401610645565b600080546001600160a01b038381166001600160a01b0319831681178455604051919092169283917f8be0079c531659141344cd1fd0a4f28419497f9722a3daafe3b4186f6b6457e09190a35050565b60006020828403121561105557600080fd5b5035919050565b6000815180845260005b8181101561108257602081850181015186830182015201611066565b506000602082860101526020601f19601f83011685010191505092915050565b6080815260006110b5608083018761105c565b85602084015282810360408401526110cd818661105c565b91505082606083015295945050505050565b600082825180855260208086019550808260051b84010181860160005b8481101561114a57601f198684030189528151606081518186526111228287018261105c565b83880151878901526040938401519390960192909252505097830197908301906001016110fc565b5090979650505050505050565b60208152600061116a60208301846110df565b9392505050565b606081526000611184606083018661105c565b60208301949094525060400152919050565b8035600281106111a557600080fd5b919050565b600080604083850312156111bd57600080fd5b823591506111cd60208401611196565b90509250929050565b60208152600061116a602083018461105c565b60a0815260006111fc60a083018861105c565b866020840152856040840152828103606084015261121a81866110df565b9150508260808301529695505050505050565b80356001600160a01b03811681146111a557600080fd5b6000806040838503121561125757600080fd5b823591506111cd6020840161122d565b60006020828403121561127957600080fd5b61116a8261122d565b60008083601f84011261129457600080fd5b50813567ffffffffffffffff8111156112ac57600080fd5b6020830191508360208260051b85010111156112c757600080fd5b9250929050565b600080600080604085870312156112e457600080fd5b843567ffffffffffffffff808211156112fc57600080fd5b61130888838901611282565b9096509450602087013591508082111561132157600080fd5b5061132e87828801611282565b95989497509550505050565b600181811c9082168061134e57607f821691505b60208210810361136e57634e487b7160e01b600052602260045260246000fd5b50919050565b60006020828403121561138657600080fd5b8151801515811461116a57600080fd5b60208082526027908201527f566f74696e67546f7069633a2055736572206e6f7420576f726c642049442076604082015266195c9a599a595960ca1b606082015260800190565b60208082526022908201527f566f74696e67546f7069633a20566f74696e67206973206e6f74206163746976604082015261329760f11b606082015260800190565b60208082526028908201527f566f74696e67546f7069633a20466163654f666620696e646578206f7574206f60408201526733103137bab7321760c11b606082015260800190565b634e487b7160e01b600052603260045260246000fd5b60208082526035908201527f566f74696e67546f7069633a20557365722068617320616c726561647920766f6040820152743a32b21037b7103a3434b9903330b1b296b7b3331760591b606082015260800190565b634e487b7160e01b600052602160045260246000fd5b60006001820161150857634e487b7160e01b600052601160045260246000fd5b5060010190565b60006020828403121561152157600080fd5b61116a8261119656fea26469706673582212203daa61f9d20442698a4cf779c3805a76d10c3438f2d8b3051ac962b570c1a18264736f6c63430008180033","linkReferences":{}},"methodIdentifiers":{"batchVote(uint256[],uint8[])":"fd3cdca2","endTime()":"3197cbb6","faceOffPairs(uint256)":"2b028f39","hasUserVotedOnFaceOff(uint256,address)":"c32878fa","options(uint256)":"409e2205","owner()":"8da5cb5b","readVotingTopic()":"a569f5a7","renounceOwnership()":"715018a6","returnAllOptions()":"3df0b2b1","startTime()":"78e97925","totalOptions()":"b3543889","transferOwnership(address)":"f2fde38b","vote(uint256,uint8)":"943e8216","votingEnded()":"9d5a0529","votingGovernance()":"75b63bbe","votingStarted()":"83d948b7","votingTopic()":"98d55578"},"id":41}