{"abi":[{"type":"constructor","inputs":[{"name":"_worldIdRouter","type":"address","internalType":"address"},{"name":"_appId","type":"string","internalType":"string"},{"name":"_actionId","type":"string","internalType":"string"}],"stateMutability":"nonpayable"},{"type":"function","name":"allVotingTopics","inputs":[{"name":"","type":"uint256","internalType":"uint256"}],"outputs":[{"name":"","type":"address","internalType":"address"}],"stateMutability":"view"},{"type":"function","name":"createNewVoting","inputs":[{"name":"_votingTopic","type":"string","internalType":"string"},{"name":"_startTime","type":"uint256","internalType":"uint256"},{"name":"_endTime","type":"uint256","internalType":"uint256"},{"name":"_optionsArray","type":"string[]","internalType":"string[]"}],"outputs":[],"stateMutability":"nonpayable"},{"type":"function","name":"getAllVotingTopics","inputs":[],"outputs":[{"name":"","type":"address[]","internalType":"address[]"}],"stateMutability":"view"},{"type":"function","name":"isAdmin","inputs":[{"name":"","type":"address","internalType":"address"}],"outputs":[{"name":"","type":"bool","internalType":"bool"}],"stateMutability":"view"},{"type":"function","name":"isUserWorldIdVerified","inputs":[{"name":"_user","type":"address","internalType":"address"}],"outputs":[{"name":"","type":"bool","internalType":"bool"}],"stateMutability":"view"},{"type":"function","name":"isWorldIdVerified","inputs":[{"name":"","type":"address","internalType":"address"}],"outputs":[{"name":"","type":"bool","internalType":"bool"}],"stateMutability":"view"},{"type":"function","name":"owner","inputs":[],"outputs":[{"name":"","type":"address","internalType":"address"}],"stateMutability":"view"},{"type":"function","name":"renounceOwnership","inputs":[],"outputs":[],"stateMutability":"nonpayable"},{"type":"function","name":"setAdmin","inputs":[{"name":"_admin","type":"address","internalType":"address"},{"name":"_isAdmin","type":"bool","internalType":"bool"}],"outputs":[],"stateMutability":"nonpayable"},{"type":"function","name":"transferOwnership","inputs":[{"name":"newOwner","type":"address","internalType":"address"}],"outputs":[],"stateMutability":"nonpayable"},{"type":"function","name":"verifyUser","inputs":[{"name":"_signal","type":"address","internalType":"address"},{"name":"_root","type":"uint256","internalType":"uint256"},{"name":"_nullifierHash","type":"uint256","internalType":"uint256"},{"name":"_proof","type":"uint256[8]","internalType":"uint256[8]"}],"outputs":[],"stateMutability":"nonpayable"},{"type":"function","name":"worldIdRouter","inputs":[],"outputs":[{"name":"","type":"address","internalType":"contract IWorldID"}],"stateMutability":"view"},{"type":"event","name":"NewVotingTopic","inputs":[{"name":"votingAddress","type":"address","indexed":true,"internalType":"address"},{"name":"votingTopic","type":"string","indexed":false,"internalType":"string"},{"name":"startTime","type":"uint256","indexed":false,"internalType":"uint256"},{"name":"endTime","type":"uint256","indexed":false,"internalType":"uint256"}],"anonymous":false},{"type":"event","name":"OwnershipTransferred","inputs":[{"name":"previousOwner","type":"address","indexed":true,"internalType":"address"},{"name":"newOwner","type":"address","indexed":true,"internalType":"address"}],"anonymous":false},{"type":"event","name":"SetAdmin","inputs":[{"name":"admin","type":"address","indexed":false,"internalType":"address"},{"name":"isAdmin","type":"bool","indexed":false,"internalType":"bool"}],"anonymous":false}],"bytecode":{"object":"0x60a06040523480156200001157600080fd5b5060405162002d1338038062002d13833981016040819052620000349162000202565b6200003f33620000ae565b600180546001600160a01b0319166001600160a01b038516179055604051620000a1906200008d90620000779085906020016200028c565b60408051601f19818403018152919052620000fe565b8260405160200162000077929190620002aa565b60805250620002d2915050565b600080546001600160a01b038381166001600160a01b0319831681178455604051919092169283917f8be0079c531659141344cd1fd0a4f28419497f9722a3daafe3b4186f6b6457e09190a35050565b60006008826040516020016200011591906200028c565b60408051601f198184030181529190528051602090910120901c92915050565b634e487b7160e01b600052604160045260246000fd5b60005b83811015620001685781810151838201526020016200014e565b50506000910152565b600082601f8301126200018357600080fd5b81516001600160401b0380821115620001a057620001a062000135565b604051601f8301601f19908116603f01168101908282118183101715620001cb57620001cb62000135565b81604052838152866020858801011115620001e557600080fd5b620001f88460208301602089016200014b565b9695505050505050565b6000806000606084860312156200021857600080fd5b83516001600160a01b03811681146200023057600080fd5b60208501519093506001600160401b03808211156200024e57600080fd5b6200025c8783880162000171565b935060408601519150808211156200027357600080fd5b50620002828682870162000171565b9150509250925092565b60008251620002a08184602087016200014b565b9190910192915050565b82815260008251620002c48160208501602087016200014b565b919091016020019392505050565b608051612a25620002ee600039600061057c0152612a256000f3fe60806040523480156200001157600080fd5b5060043610620000c35760003560e01c8063846e50c4116200007a578063846e50c414620001ab5780638da5cb5b14620001c25780639968009a14620001d45780639f50b66d14620001ed578063b4ca1b1b1462000201578063f2fde38b146200021857600080fd5b80632479c84b14620000c857806324d7806c14620000fc5780634b0bddd214620001335780635e3d4e8e146200014c578063715018a6146200017b578063716ff61d1462000185575b600080fd5b620000df620000d9366004620007de565b6200022f565b6040516001600160a01b0390911681526020015b60405180910390f35b620001226200010d36600462000815565b60026020526000908152604090205460ff1681565b6040519015158152602001620000f3565b6200014a620001443660046200083a565b6200025a565b005b620001226200015d36600462000815565b6001600160a01b031660009081526003602052604090205460ff1690565b6200014a620002c7565b620001226200019636600462000815565b60036020526000908152604090205460ff1681565b6200014a620001bc3660046200093b565b620002df565b6000546001600160a01b0316620000df565b620001de62000432565b604051620000f3919062000a45565b600154620000df906001600160a01b031681565b6200014a6200021236600462000a94565b62000496565b6200014a6200022936600462000815565b6200066e565b600481815481106200024057600080fd5b6000918252602090912001546001600160a01b0316905081565b62000264620006ed565b6001600160a01b038216600081815260026020908152604091829020805460ff19168515159081179091558251938452908301527f55a5194bc0174fcaf12b2978bef43911466bf63b34db8d1dd1a0d5dcd5c41bea910160405180910390a15050565b620002d1620006ed565b620002dd600062000749565b565b3360009081526002602052604090205460ff16806200030857506000546001600160a01b031633145b6200035a5760405162461bcd60e51b815260206004820152601b60248201527f566f74696e67476f7665726e616e63653a204e6f742041646d696e000000000060448201526064015b60405180910390fd5b6000848484846040516200036e90620007d0565b6200037d949392919062000b3a565b604051809103906000f0801580156200039a573d6000803e3d6000fd5b50600480546001810182556000919091527f8a35acfbc15ff81a39ae7d344fd709f28e8600b4aa8c65c6b64bfe7fe36bd19b0180546001600160a01b0319166001600160a01b038316908117909155604051919250907f27a79e3c70f83cf562aa522ea5b90297a675eea406dc3ea827788d190a39345c90620004239088908890889062000bc0565b60405180910390a25050505050565b606060048054806020026020016040519081016040528092919081815260200182805480156200048c57602002820191906000526020600020905b81546001600160a01b031681526001909101906020018083116200046d575b5050505050905090565b6001600160a01b03841660009081526003602052604090205460ff1615620005275760405162461bcd60e51b815260206004820152603860248201527f566f74696e67476f7665726e616e63653a204164647265737320616c7265616460448201527f79207665726966696564207769746820576f726c642049440000000000000000606482015260840162000351565b600180546040516bffffffffffffffffffffffff19606088901b1660208201526001600160a01b0390911691633bc778e391869190620005799060340160405160208183030381529060405262000799565b867f0000000000000000000000000000000000000000000000000000000000000000876040518763ffffffff1660e01b8152600401620005bf9695949392919062000be7565b60006040518083038186803b158015620005d857600080fd5b505afa925050508015620005ea575060015b6200064557620005f962000c1f565b806308c379a0036200063957506200061062000c3c565b806200061d57506200063b565b8060405162461bcd60e51b815260040162000351919062000ccc565b505b3d6000803e3d6000fd5b6001600160a01b0384166000908152600360205260409020805460ff1916600117905550505050565b62000678620006ed565b6001600160a01b038116620006df5760405162461bcd60e51b815260206004820152602660248201527f4f776e61626c653a206e6577206f776e657220697320746865207a65726f206160448201526564647265737360d01b606482015260840162000351565b620006ea8162000749565b50565b6000546001600160a01b03163314620002dd5760405162461bcd60e51b815260206004820181905260248201527f4f776e61626c653a2063616c6c6572206973206e6f7420746865206f776e6572604482015260640162000351565b600080546001600160a01b038381166001600160a01b0319831681178455604051919092169283917f8be0079c531659141344cd1fd0a4f28419497f9722a3daafe3b4186f6b6457e09190a35050565b6000600882604051602001620007b0919062000ce1565b60408051601f198184030181529190528051602090910120901c92915050565b611cf08062000d0083390190565b600060208284031215620007f157600080fd5b5035919050565b80356001600160a01b03811681146200081057600080fd5b919050565b6000602082840312156200082857600080fd5b6200083382620007f8565b9392505050565b600080604083850312156200084e57600080fd5b6200085983620007f8565b9150602083013580151581146200086f57600080fd5b809150509250929050565b634e487b7160e01b600052604160045260246000fd5b601f8201601f1916810167ffffffffffffffff81118282101715620008b957620008b96200087a565b6040525050565b600082601f830112620008d257600080fd5b813567ffffffffffffffff811115620008ef57620008ef6200087a565b60405162000908601f8301601f19166020018262000890565b8181528460208386010111156200091e57600080fd5b816020850160208301376000918101602001919091529392505050565b600080600080608085870312156200095257600080fd5b843567ffffffffffffffff808211156200096b57600080fd5b6200097988838901620008c0565b955060209150818701359450604087013593506060870135818111156200099f57600080fd5b8701601f81018913620009b157600080fd5b803582811115620009c657620009c66200087a565b8060051b604051620009db8683018262000890565b9182528281018501918581018c841115620009f557600080fd5b86850192505b8383101562000a345782358681111562000a155760008081fd5b62000a258e8983890101620008c0565b825250918601918601620009fb565b50989b979a50959850505050505050565b6020808252825182820181905260009190848201906040850190845b8181101562000a885783516001600160a01b03168352928401929184019160010162000a61565b50909695505050505050565b60008060008061016080868803121562000aad57600080fd5b62000ab886620007f8565b9450602086013593506040860135925086818701111562000ad857600080fd5b509295919450926060019150565b60005b8381101562000b0357818101518382015260200162000ae9565b50506000910152565b6000815180845262000b2681602086016020860162000ae6565b601f01601f19169290920160200192915050565b60808152600062000b4f608083018762000b0c565b6020868185015285604085015283820360608501528185518084528284019150828160051b85010183880160005b8381101562000baf57601f1987840301855262000b9c83835162000b0c565b9486019492509085019060010162000b7d565b50909b9a5050505050505050505050565b60608152600062000bd5606083018662000b0c565b60208301949094525060400152919050565b60006101a0820190508782528660208301528560408301528460608301528360808301526101008360a0840137979650505050505050565b600060033d111562000c395760046000803e5060005160e01c5b90565b600060443d101562000c4b5790565b6040516003193d81016004833e81513d67ffffffffffffffff816024840111818411171562000c7c57505050505090565b828501915081518181111562000c955750505050505090565b843d870101602082850101111562000cb05750505050505090565b62000cc16020828601018762000890565b509095945050505050565b60208152600062000833602083018462000b0c565b6000825162000cf581846020870162000ae6565b919091019291505056fe60806040523480156200001157600080fd5b5060405162001cf038038062001cf08339810160408190526200003491620003b8565b6200003f3362000292565b601481511115620000965760405162461bcd60e51b815260206004820152601d60248201527f566f74696e67546f7069633a20546f6f206d616e79206f7074696f6e73000000604482015260640160405180910390fd5b600180546001600160a01b031916331790556002620000b6858262000551565b506003839055600482905560005b81518110156200018a5760066040518060600160405280848481518110620000f057620000f06200061d565b60209081029190910181015182526000828201819052604090920182905283546001810185559382529020815191926003020190819062000132908262000551565b506020820151600180830191909155604090920151600290910155600580546000906200016490849060ff1662000649565b92506101000a81548160ff021916908360ff1602179055508080600101915050620000c4565b5060005b60065481101562000287576000620001a88260016200066b565b90505b6006548110156200027d5760078054600190810180835560008381529291620001d49162000681565b81548110620001e757620001e76200061d565b90600052602060002090600502019050600683815481106200020d576200020d6200061d565b6000918252602090912082916200022b916003909102018262000697565b506001810183905560068054839081106200024a576200024a6200061d565b90600052602060002090600302016000018160020190816200026d919062000697565b50600301819055600101620001ab565b506001016200018e565b505050505062000780565b600080546001600160a01b038381166001600160a01b0319831681178455604051919092169283917f8be0079c531659141344cd1fd0a4f28419497f9722a3daafe3b4186f6b6457e09190a35050565b634e487b7160e01b600052604160045260246000fd5b604051601f8201601f191681016001600160401b0381118282101715620003235762000323620002e2565b604052919050565b600082601f8301126200033d57600080fd5b81516001600160401b03811115620003595762000359620002e2565b60206200036f601f8301601f19168201620002f8565b82815285828487010111156200038457600080fd5b60005b83811015620003a457858101830151828201840152820162000387565b506000928101909101919091529392505050565b60008060008060808587031215620003cf57600080fd5b84516001600160401b0380821115620003e757600080fd5b620003f5888389016200032b565b955060209150818701519450604087015193506060870151818111156200041b57600080fd5b8701601f810189136200042d57600080fd5b805182811115620004425762000442620002e2565b8060051b62000453858201620002f8565b918252828101850191858101908c8411156200046e57600080fd5b86850192505b83831015620004af578251868111156200048e5760008081fd5b6200049e8e89838901016200032b565b835250918601919086019062000474565b999c989b5096995050505050505050565b600181811c90821680620004d557607f821691505b602082108103620004f657634e487b7160e01b600052602260045260246000fd5b50919050565b601f8211156200054c576000816000526020600020601f850160051c81016020861015620005275750805b601f850160051c820191505b81811015620005485782815560010162000533565b5050505b505050565b81516001600160401b038111156200056d576200056d620002e2565b62000585816200057e8454620004c0565b84620004fc565b602080601f831160018114620005bd5760008415620005a45750858301515b600019600386901b1c1916600185901b17855562000548565b600085815260208120601f198616915b82811015620005ee57888601518255948401946001909101908401620005cd565b50858210156200060d5787850151600019600388901b60f8161c191681555b5050505050600190811b01905550565b634e487b7160e01b600052603260045260246000fd5b634e487b7160e01b600052601160045260246000fd5b60ff818116838216019081111562000665576200066562000633565b92915050565b8082018082111562000665576200066562000633565b8181038181111562000665576200066562000633565b818103620006a3575050565b620006af8254620004c0565b6001600160401b03811115620006c957620006c9620002e2565b620006da816200057e8454620004c0565b6000601f821160018114620007115760008315620006f85750848201545b600019600385901b1c1916600184901b17845562000779565b600085815260209020601f19841690600086815260209020845b838110156200074d57828601548255600195860195909101906020016200072b565b50858310156200076c5781850154600019600388901b60f8161c191681555b50505060018360011b0184555b5050505050565b61156080620007906000396000f3fe608060405234801561001057600080fd5b506004361061010b5760003560e01c80638da5cb5b116100a2578063a569f5a711610071578063a569f5a714610221578063b35438891461023a578063c32878fa14610259578063f2fde38b1461026c578063fd3cdca21461027f57600080fd5b80638da5cb5b146101de578063943e8216146101ef57806398d55578146102025780639d5a05291461021757600080fd5b8063715018a6116100de578063715018a61461018a57806375b63bbe1461019457806378e97925146101bf57806383d948b7146101c857600080fd5b80632b028f39146101105780633197cbb61461013c5780633df0b2b114610153578063409e220514610168575b600080fd5b61012361011e366004611043565b610292565b60405161013394939291906110a2565b60405180910390f35b61014560045481565b604051908152602001610133565b61015b6103e2565b6040516101339190611157565b61017b610176366004611043565b6104e7565b60405161013393929190611171565b6101926105a9565b005b6001546101a7906001600160a01b031681565b6040516001600160a01b039091168152602001610133565b61014560035481565b60035442115b6040519015158152602001610133565b6000546001600160a01b03166101a7565b6101926101fd3660046111aa565b6105bd565b61020a6108c0565b60405161013391906111d6565b60045442116101ce565b61022961094e565b6040516101339594939291906111e9565b6005546102479060ff1681565b60405160ff9091168152602001610133565b6101ce610267366004611244565b610b03565b61019261027a366004611267565b610b6e565b61019261028d3660046112ce565b610be7565b600781815481106102a257600080fd5b90600052602060002090600502016000915090508060000180546102c59061133a565b80601f01602080910402602001604051908101604052809291908181526020018280546102f19061133a565b801561033e5780601f106103135761010080835404028352916020019161033e565b820191906000526020600020905b81548152906001019060200180831161032157829003601f168201915b5050505050908060010154908060020180546103599061133a565b80601f01602080910402602001604051908101604052809291908181526020018280546103859061133a565b80156103d25780601f106103a7576101008083540402835291602001916103d2565b820191906000526020600020905b8154815290600101906020018083116103b557829003601f168201915b5050505050908060030154905084565b60606006805480602002602001604051908101604052809291908181526020016000905b828210156104de57838290600052602060002090600302016040518060600160405290816000820180546104399061133a565b80601f01602080910402602001604051908101604052809291908181526020018280546104659061133a565b80156104b25780601f10610487576101008083540402835291602001916104b2565b820191906000526020600020905b81548152906001019060200180831161049557829003601f168201915b505050505081526020016001820154815260200160028201548152505081526020019060010190610406565b50505050905090565b600681815481106104f757600080fd5b906000526020600020906003020160009150905080600001805461051a9061133a565b80601f01602080910402602001604051908101604052809291908181526020018280546105469061133a565b80156105935780601f1061056857610100808354040283529160200191610593565b820191906000526020600020905b81548152906001019060200180831161057657829003601f168201915b5050505050908060010154908060020154905083565b6105b1610f99565b6105bb6000610ff3565b565b600154604051632f1ea74760e11b81523360048201526001600160a01b0390911690635e3d4e8e90602401602060405180830381865afa158015610605573d6000803e3d6000fd5b505050506040513d601f19601f820116820180604052508101906106299190611374565b61064e5760405162461bcd60e51b815260040161064590611396565b60405180910390fd5b600354421015801561066257506004544211155b61067e5760405162461bcd60e51b8152600401610645906113dd565b600754821061069f5760405162461bcd60e51b81526004016106459061141f565b600782815481106106b2576106b2611467565b600091825260208083203384526004600590930201919091019052604090205460ff16156106f25760405162461bcd60e51b81526004016106459061147d565b6000816001811115610706576107066114d2565b036107c45760066007838154811061072057610720611467565b9060005260206000209060050201600101548154811061074257610742611467565b600091825260208220600160039092020101805491610760836114e8565b919050555060066007838154811061077a5761077a611467565b9060005260206000209060050201600301548154811061079c5761079c611467565b6000918252602082206002600390920201018054916107ba836114e8565b9190505550610879565b6006600783815481106107d9576107d9611467565b906000526020600020906005020160030154815481106107fb576107fb611467565b600091825260208220600160039092020101805491610819836114e8565b919050555060066007838154811061083357610833611467565b9060005260206000209060050201600101548154811061085557610855611467565b600091825260208220600260039092020101805491610873836114e8565b91905055505b60016007838154811061088e5761088e611467565b60009182526020808320338452600592909202909101600401905260409020805460ff19169115159190911790555050565b600280546108cd9061133a565b80601f01602080910402602001604051908101604052809291908181526020018280546108f99061133a565b80156109465780601f1061091b57610100808354040283529160200191610946565b820191906000526020600020905b81548152906001019060200180831161092957829003601f168201915b505050505081565b606060008060606000600260035460045460066007805490508480546109739061133a565b80601f016020809104026020016040519081016040528092919081815260200182805461099f9061133a565b80156109ec5780601f106109c1576101008083540402835291602001916109ec565b820191906000526020600020905b8154815290600101906020018083116109cf57829003601f168201915b5050505050945081805480602002602001604051908101604052809291908181526020016000905b82821015610aec5783829060005260206000209060030201604051806060016040529081600082018054610a479061133a565b80601f0160208091040260200160405190810160405280929190818152602001828054610a739061133a565b8015610ac05780601f10610a9557610100808354040283529160200191610ac0565b820191906000526020600020905b815481529060010190602001808311610aa357829003601f168201915b505050505081526020016001820154815260200160028201548152505081526020019060010190610a14565b505050509150945094509450945094509091929394565b6007546000908310610b275760405162461bcd60e51b81526004016106459061141f565b60078381548110610b3a57610b3a611467565b600091825260208083206001600160a01b03861684526004600590930201919091019052604090205460ff16905092915050565b610b76610f99565b6001600160a01b038116610bdb5760405162461bcd60e51b815260206004820152602660248201527f4f776e61626c653a206e6577206f776e657220697320746865207a65726f206160448201526564647265737360d01b6064820152608401610645565b610be481610ff3565b50565b600154604051632f1ea74760e11b81523360048201526001600160a01b0390911690635e3d4e8e90602401602060405180830381865afa158015610c2f573d6000803e3d6000fd5b505050506040513d601f19601f82011682018060405250810190610c539190611374565b610c6f5760405162461bcd60e51b815260040161064590611396565b6003544210158015610c8357506004544211155b610c9f5760405162461bcd60e51b8152600401610645906113dd565b828114610cfa5760405162461bcd60e51b8152602060048201526024808201527f566f74696e67546f7069633a204d69736d61746368656420696e7075742061726044820152637261797360e01b6064820152608401610645565b60005b83811015610f92576000858583818110610d1957610d19611467565b9050602002013590506007805490508110610d465760405162461bcd60e51b81526004016106459061141f565b60078181548110610d5957610d59611467565b600091825260208083203384526004600590930201919091019052604090205460ff1615610d995760405162461bcd60e51b81526004016106459061147d565b6000848484818110610dad57610dad611467565b9050602002016020810190610dc2919061150f565b6001811115610dd357610dd36114d2565b03610e9157600660078281548110610ded57610ded611467565b90600052602060002090600502016001015481548110610e0f57610e0f611467565b600091825260208220600160039092020101805491610e2d836114e8565b9190505550600660078281548110610e4757610e47611467565b90600052602060002090600502016003015481548110610e6957610e69611467565b600091825260208220600260039092020101805491610e87836114e8565b9190505550610f46565b600660078281548110610ea657610ea6611467565b90600052602060002090600502016003015481548110610ec857610ec8611467565b600091825260208220600160039092020101805491610ee6836114e8565b9190505550600660078281548110610f0057610f00611467565b90600052602060002090600502016001015481548110610f2257610f22611467565b600091825260208220600260039092020101805491610f40836114e8565b91905055505b600160078281548110610f5b57610f5b611467565b60009182526020808320338452600592909202909101600401905260409020805460ff191691151591909117905550600101610cfd565b5050505050565b6000546001600160a01b031633146105bb5760405162461bcd60e51b815260206004820181905260248201527f4f776e61626c653a2063616c6c6572206973206e6f7420746865206f776e65726044820152606401610645565b600080546001600160a01b038381166001600160a01b0319831681178455604051919092169283917f8be0079c531659141344cd1fd0a4f28419497f9722a3daafe3b4186f6b6457e09190a35050565b60006020828403121561105557600080fd5b5035919050565b6000815180845260005b8181101561108257602081850181015186830182015201611066565b506000602082860101526020601f19601f83011685010191505092915050565b6080815260006110b5608083018761105c565b85602084015282810360408401526110cd818661105c565b91505082606083015295945050505050565b600082825180855260208086019550808260051b84010181860160005b8481101561114a57601f198684030189528151606081518186526111228287018261105c565b83880151878901526040938401519390960192909252505097830197908301906001016110fc565b5090979650505050505050565b60208152600061116a60208301846110df565b9392505050565b606081526000611184606083018661105c565b60208301949094525060400152919050565b8035600281106111a557600080fd5b919050565b600080604083850312156111bd57600080fd5b823591506111cd60208401611196565b90509250929050565b60208152600061116a602083018461105c565b60a0815260006111fc60a083018861105c565b866020840152856040840152828103606084015261121a81866110df565b9150508260808301529695505050505050565b80356001600160a01b03811681146111a557600080fd5b6000806040838503121561125757600080fd5b823591506111cd6020840161122d565b60006020828403121561127957600080fd5b61116a8261122d565b60008083601f84011261129457600080fd5b50813567ffffffffffffffff8111156112ac57600080fd5b6020830191508360208260051b85010111156112c757600080fd5b9250929050565b600080600080604085870312156112e457600080fd5b843567ffffffffffffffff808211156112fc57600080fd5b61130888838901611282565b9096509450602087013591508082111561132157600080fd5b5061132e87828801611282565b95989497509550505050565b600181811c9082168061134e57607f821691505b60208210810361136e57634e487b7160e01b600052602260045260246000fd5b50919050565b60006020828403121561138657600080fd5b8151801515811461116a57600080fd5b60208082526027908201527f566f74696e67546f7069633a2055736572206e6f7420576f726c642049442076604082015266195c9a599a595960ca1b606082015260800190565b60208082526022908201527f566f74696e67546f7069633a20566f74696e67206973206e6f74206163746976604082015261329760f11b606082015260800190565b60208082526028908201527f566f74696e67546f7069633a20466163654f666620696e646578206f7574206f60408201526733103137bab7321760c11b606082015260800190565b634e487b7160e01b600052603260045260246000fd5b60208082526035908201527f566f74696e67546f7069633a20557365722068617320616c726561647920766f6040820152743a32b21037b7103a3434b9903330b1b296b7b3331760591b606082015260800190565b634e487b7160e01b600052602160045260246000fd5b60006001820161150857634e487b7160e01b600052601160045260246000fd5b5060010190565b60006020828403121561152157600080fd5b61116a8261119656fea26469706673582212203daa61f9d20442698a4cf779c3805a76d10c3438f2d8b3051ac962b570c1a18264736f6c63430008180033a26469706673582212201c5d72ec022886f6b2733e75094e09f7d4c00e3112c1cba8ae3dd49067b9896464736f6c63430008180033","linkReferences":{}},"methodIdentifiers":{"allVotingTopics(uint256)":"2479c84b","createNewVoting(string,uint256,uint256,string[])":"846e50c4","getAllVotingTopics()":"9968009a","isAdmin(address)":"24d7806c","isUserWorldIdVerified(address)":"5e3d4e8e","isWorldIdVerified(address)":"716ff61d","owner()":"8da5cb5b","renounceOwnership()":"715018a6","setAdmin(address,bool)":"4b0bddd2","transferOwnership(address)":"f2fde38b","verifyUser(address,uint256,uint256,uint256[8])":"b4ca1b1b","worldIdRouter()":"9f50b66d"},"id":40}